:020000040800F2
:1000000000000220C12900082D100008311000084E
:100010005D1000085F10000861100008000000007B
:100020000000000000000000000000006310000855
:100030006510000800000000671000086910000843
:10004000112A0008112A0008112A0008112A0008A4
:10005000112A0008112A00082D0C0008112A000896
:10006000112A0008112A0008112A0008112A000884
:10007000112A0008112A0008112A0008112A000874
:1000800071100008112A0008112A0008112A00081E
:10009000112A0008112A0008112A0008112A000854
:1000A000112A0008112A0008112A0008112A000844
:1000B000112A0008112A0008112A0008112A000834
:1000C000112A0008112A0008112A0008112A000824
:1000D000112A0008112A0008112A0008112A000814
:1000E000112A0008112A0008112A0008112A000804
:1000F000112A0008112A0008112A0008112A0008F4
:10010000112A0008112A0008112A0008112A0008E3
:10011000112A0008112A0008112A0008112A0008D3
:10012000112A0008112A0008112A0008112A0008C3
:10013000112A00080000000000000000112A000839
:10014000112A0008112A0008112A0008112A0008A3
:10015000112A0008112A0008112A0008112A000893
:10016000112A0008112A0008112A0008112A000883
:10017000112A0008112A0008112A000800000000B6
:1001800000000000112A000800000000000000002C
:10019000112A00080000000000000000112A0008D9
:1001A000000000000000000000000000112A00080C
:1001B000112A0008112A0008112A0008112A000833
:0401C000112A0008F8
:1001C40010B5054C237833B9044B13B10448AFF38D
:1001D40000800123237010BD1800002000000000DF
:1001E400CC34000808B5034B1BB103490348AFF3F3
:1001F400008008BD000000001C000020CC34000872
:1002040053B94AB9002908BF00281CBF4FF0FF3179
:100214004FF0FF3000F088B9ADF1080C6DE904CE61
:1002240000F006F8DDF804E0DDE9022304B07047CD
:100234002DE9F047089D8E4604468846002B4AD196
:100244008A42174662D9B2FA82F64EB1C6F1200349
:1002540001FA06F820FA03F3B74043EA0808B44069
:100264004FEA174E1FFA87FCB8FBFEF1230C0EFB76
:10027400118843EA084301FB0CF29A4209D9FB189E
:1002840001F1FF3080F0EA809A4240F2E7800239BF
:100294003B449A1AA3B2B2FBFEF00EFB102243EACF
:1002A400024300FB0CFC9C4509D9FB1800F1FF320A
:1002B40080F0D6809C4540F2D3803B44023840EA2B
:1002C4000140A3EB0C0300211DB1F3400022C5E95A
:1002D4000032BDE8F0878B4205D90DB1C5E90001B4
:1002E40000210846F5E7B3FA83F1002946D17345A6
:1002F40002D3824200F20581841A6EEB03020120CC
:100304009046002DE5D0C5E90048E2E7002A00F058
:100314009080B2FA82F6002E40F0A4808A1A030C70
:100324004FEA174E80B2BCB20121B2FBFEFC0EFBB9
:100334001C2243EA024304FB0CF29A4207D9FB183D
:100344000CF1FF3802D29A4200F2E080C4469B1AB4
:10035400B3FBFEF20EFB123340EA034302FB04F448
:100364009C4207D9FB1802F1FF3002D29C4200F2F2
:10037400CA8002461B1B42EA0C40A5E7C1F12006D5
:100384008B4022FA06F71F430EFA01F420FA06F313
:100394002EFA06FE4FEA1749234300FA01F81FFA22
:1003A40087FCBEFBF9F01C0C09FB10EE44EA0E447A
:1003B40000FB0CFEA64502FA01F209D93C1900F132
:1003C400FF3A80F09C80A64540F2998002383C4474
:1003D400A4EB0E041FFA83FEB4FBF9F309FB1344E8
:1003E4004EEA044403FB0CFCA44508D93C1903F170
:1003F400FF3E80F08280A4457FD9023B3C4443EA1F
:100404000040A4EB0C04A0FB02EC64457346E146F7
:1004140062D35FD05DB1B8EB030264EB090404FA64
:1004240006F622FA01F31E43CC40C5E9006400211C
:100434004FE7B1FBF2FC010C41EA0E4180B240EA05
:1004440001423B4638463C46B846BE462026B1FBF0
:10045400F7F1A2EB080241EA0C4166E7014618E70E
:1004640010462CE7C6F120022EFA02F3B740B14041
:1004740020FA02F24FEA174E0A43B3FBFEF8BCB26D
:100484000EFB1833110C41EA034108FB04F9B04098
:1004940089454FEA104380B23ED9791808F1FF3CF0
:1004A40001D289451FD8A1EB0901B1FBFEF909FB73
:1004B40004F80EFB191192B242EA0142424529D2D4
:1004C400BA1809F1FF31C4D24245C2D2A9F10201DE
:1004D4003A44BEE7F0459DD2BEEB02036CEB070C39
:1004E4000138E14696E7A7EB09094944A8F1020C53
:1004F400B1FBFEF909FB04F8DBE773467FE75046DE
:1005040066E70846FDE63B44023A33E7ACF1020CE9
:100514003B441CE749469CE7A1EB0901C446B1FBF7
:10052400FEF909FB04F8C4E7704700BF05280ED89C
:10053400DFE800F0030F0507090B07487047074879
:10054400704707487047074870470748704707488F
:1005540070470748704700BFE4340008F0340008CF
:10056400F4340008FC340008043500080C35000895
:10057400EC3400082DE9F04F8BB000240594069468
:1005840007940894099401943B4B1A6B42F080023F
:100594001A631A6B02F080020192019A02941A6B98
:1005A40042F001021A631A6B02F001020292029AEB
:1005B40003941A6B42F002021A631A6B02F00202ED
:1005C4000392039A04941A6B42F004021A631B6B9D
:1005D40003F004030493049B4FF4404BCDF814B090
:1005E40001260696DFF89CA005A9504601F0B0FD4F
:1005F4004FF44079CDF81490204D05A9284601F018
:10060400A7FD4FF41048CDF814801D4F05A93846B6
:1006140001F09EFD22465946504601F089FE2246CD
:100624004946284601F084FE22464146384601F0F8
:100634007FFE05964FF488130693079605A938465E
:1006440001F086FD22460221062002F033F906203D
:1006540002F040F98027059706960794089405A9A7
:10066400284601F075FD22463946284601F060FE11
:100674000BB0BDE8F08F00BF003802400004024018
:10068400000002400008024000B583B0002101913F
:10069400094B1A6B42F400121A631B6B03F4001328
:1006A4000193019B0A46102002F004F9102002F085
:1006B40011F903B05DF804FB0038024010B52DEDCC
:1006C400068B002482E0A4F1800307EE903AF8EE52
:1006D400677A77EEA77A9FED617A67EE877A9FED66
:1006E400606AC7EE866A37EE667ABCEEC77A5D4BFF
:1006F40017EE102A43F82420DFED5B8A68EE288A7F
:1007040039EE090A02F0B0F9DFED58AA20EE2A0A00
:1007140078EE808AB7EE00AA78EE8A8ADFED549AE2
:1007240068EEA98AFCEEE88A524B18EE902A43F848
:100734002420DFED518A68EE288AB0EE080A29EEFB
:10074400000A02F091F920EE2A0A78EE808AB1EECE
:10075400040A29EE000A02F087F9DFED487A20EE58
:10076400270A78EE808A78EE8A8A68EEA98AFCEEF7
:10077400E88A434B18EE902A43F82420DFED417AAF
:1007840028EE278A9FED400A29EE000A02F06CF950
:10079400F5EE007A20EE270A38EE008A9FED3B0A38
:1007A40029EE000A02F060F9DFED397A20EE270A1B
:1007B40038EE008A38EE0A8A28EE298ABCEEC88A06
:1007C400344B18EE102A43F824200134FF2C42D86D
:1007D40007EE904AF8EE678A9FED2F9A28EE899AE1
:1007E400DFED2E7A29EE279AB0EE490A02F03CF9A1
:1007F400B0EE408AF7EE007A70EE277A9FED1C7A0D
:1008040067EE877AFCEEE77A254B17EE902A43F8D9
:1008140024209FED127A28EE877ADFED116AC7EE65
:10082400267AFCEEE77A1F4B17EE902A43F8242031
:100834007F2C3FF648AF78EEA88ADFED087A68EEA1
:10084400A78AC8EEA67AFCEEE77A064B17EE902A42
:1008540043F8242050E7BDEC068B10BD00F07F4523
:1008640000007F43400C0020CDCC4C3FCDCC4C3E0F
:1008740000F0FF44400800203333333FCDCCCC3D5F
:10088400400400209A99193FCDCC2C409A99A94054
:100894009A99193E40000020DB0FC9400000803BBC
:1008A400401400204010002072B6FEE700B58FB05F
:1008B40000230A930B930C930D93089309930193CC
:1008C40002930393049305930693079336484FF0DA
:1008D4008042026043608360344A1268013AC26015
:1008E4000361836100F090FD002850D14FF48053E0
:1008F4000A930AA92C4800F0EDFE002849D12A48A1
:1009040000F0AEFD002846D100230893099308A9FE
:10091400254801F071F800283FD10022019202928B
:100924000392059201A9204800F02AFE002836D13E
:10093400002300931E4A116B41F400111163126BE2
:1009440002F400120092009A1A481B4A02604FF007
:10095400C062426040228260C3604FF480620261E0
:100964004FF4805242614FF4804282614FF48072AE
:10097400C2614FF400320262436201F073FD80B938
:10098400094A0C4B53629A630FB05DF804FBFFF7FE
:100994008BFFFFF789FFFFF787FFFFF785FFFFF75F
:1009A40083FFFFF781FF00BFE81800200400002048
:1009B40000380240401800208860024000B58FB023
:1009C40000230A930B930C930D93089309930193BB
:1009D4000293039304930593069307931E481F4AB7
:1009E40002604360836040F6FF72C260036183610A
:1009F40000F00AFD28BB4FF480530A930AA9164855
:100A040000F068FEF8B9144800F056FDE8B9002378
:100A14000893099308A9104800F0EEFFB8B96023C1
:100A240001930023029303930593082201A90A4822
:100A340000F0D5FD68B9084800F088FB0FB05DF8F8
:100A440004FBFFF731FFFFF72FFFFFF72DFFFFF741
:100A54002BFFFFF729FF00BFA0180020000400406F
:100A640000B595B03422002107A801F0D0FF00237F
:100A7400029303930493059306930093194A116C0C
:100A840041F080511164126C02F080520092009A7D
:100A9400019315490A6822F4404242F480420A60F4
:100AA4000A6802F440420192019A0222079201224A
:100AB4000A9210220B920D9307A801F027F968B946
:100AC4000F2302930021039104910591069102A83A
:100AD40000F0D8FF20B915B05DF804FBFFF7E4FE81
:100AE400FFF7E2FE003802400070004010B584B009
:100AF400414A136B43F002031363404B1A6822F418
:100B040040421A601A6842F480421A60002301933A
:100B140019E000BF029B01330293029A384B9A42B8
:100B2400F7D9364B4FF400029A610023039303E094
:100B340000BF039B01330393039A314B9A42F7D9C5
:100B4400019B01330193019B022B05D82B4B80227F
:100B54009A6100230293E0E701F0FAFEFFF780FFB9
:100B6400FFF708FDFFF790FDFFF7A0FEFFF726FF54
:100B7400FFF7A4FD234C00232370234B234A1A6060
:100B840000F01AFA012000F08FF9214800F080F9F2
:100B94002078FFF7CBFC00F07BF908211D4800F01A
:100BA400A9FE08B1FFF780FE00211B4800F020FEDB
:100BB40008B1FFF779FE4FF48073184A126812499E
:100BC4000968174801F0B4FC98B9134B1A68D36844
:100BD40043F40073D36001F0E1FE124B1B68C31AA7
:100BE400F92BF8D90F4B18608021044801F0A6FBBB
:100BF400F1E7FFF759FE00BF00380240000402404D
:100C04003F0D03003C000020080000204014002099
:100C140010350008A0180020E8180020000000206B
:100C2400401800203800002008B501F0B7FE334B0F
:100C34001B68C31A952B1FD9304B1860304B1A68A8
:100C4400D36823F40073D3602E4801F0A6FC2E4928
:100C54000A7801322D4B83FB020303EB4303A2EB1F
:100C64004303DBB20B700B78DBB2052B3FD8DFE814
:100C740003F0072A2E32363A012001F069FB21E005
:100C8400234B244A1A60012000F00EF9224800F098
:100C9400FFF81D4B1878FFF749FC00F0F9F84FF402
:100CA40080731E4A12681A490968164801F040FC0C
:100CB40008BB134B1A68D36843F40073D360012054
:100CC40001F046FB08BD124B154A1A60DBE7104BD6
:100CD400144A1A60D7E70E4B134A1A60D3E70C4B39
:100CE400124A1A60CFE70A4B114A1A60CBE7084B45
:100CF400084A1A60C7E7FFF7D7FD00BF3400002099
:100D0400E8180020401800203C000020ABAAAA2AC2
:100D140008000020401400201035000800000020C6
:100D240040100020400C0020400800204004002017
:100D34004000002082B000EB40000023019304E057
:100D440000BF00BF019B01330193019B8342F7D392
:100D540002B0704710B51420FFF7ECFF094CA369EB
:100D640043F40043A3611420FFF7E4FFA36943F0B5
:100D74000043A3611420FFF7DDFFA36943F400439C
:100D8400A36110BD0008024010B504463D4A9369B2
:100D940043F48043936110F0800F41D13A4A936940
:100DA40043F00043936114F0400F40D0364A9369F6
:100DB40043F48053936114F0200F3ED0334A936977
:100DC40043F40073936114F0100F3CD02F4A9369DD
:100DD40043F480739361FFF7BDFF14F0080F38D01C
:100DE400294A936943F40043936114F0040F36D005
:100DF400254A936943F48053936114F0020F34D06D
:100E0400224A936943F40073936114F0010F32D0C2
:100E14001E4A936943F480739361FFF79BFF10BDEF
:100E2400A2F50062936943F400439361BBE7164A59
:100E3400936943F080539361BDE7144A936943F087
:100E440000739361BFE7114A936943F08073936120
:100E5400C1E70D4A936943F000439361C5E70A4A29
:100E6400936943F080539361C7E7084A936943F059
:100E740000739361C9E7054A936943F080739361F2
:100E8400CBE700BF0008024000000240000402401B
:100E940038B50546002403E0FFF776FF0134E4B2D9
:100EA400285D0028F8D138BD10B504463F4A93693F
:100EB40043F08043936110F0800F45D13C4A93691D
:100EC40043F00043936114F0400F44D0384A9369CF
:100ED40043F48053936114F0200F42D0354A936950
:100EE40043F40073936114F0100F40D0314A9369B6
:100EF40043F480739361FFF72DFF14F0080F3CD087
:100F04002B4A936943F40043936114F0040F3AD0DD
:100F1400274A936943F48053936114F0020F38D045
:100F2400244A936943F40073936114F0010F36D09B
:100F3400204A936943F480739361FFF70BFF40F6F3
:100F4400B830FFF7F7FE10BDA2F50062936943F4D1
:100F540000439361B7E7164A936943F08053936162
:100F6400B9E7144A936943F000739361BBE7114AEC
:100F7400936943F080739361BDE70D4A936943F02D
:100F840000439361C1E70A4A936943F08053936134
:100F9400C3E7084A936943F000739361C5E7054AC0
:100FA400936943F080739361C7E700BF0008024070
:100FB400000002400004024008B5194B1A6B42F0CD
:100FC40001021A631A6B42F002021A631A6B42F0AE
:100FD40004021A63134A136843F08243136002F550
:100FE4008062136843F4A023136002F580621368DF
:100FF40043F0A043136047F23050FFF79BFE3320C9
:10100400FFF752FF3220FFF74FFF0C20FFF74CFF92
:101014002820FFF749FF0120FFF746FF08BD00BF66
:101024000038024000000240FEE70000084A136B4B
:1010340043F002031363074B1A6822F440421A6018
:101044001A6842F480421A6080229A61FEE700BF67
:101054000038024000040240FEE7FEE7FEE7704766
:101064007047704708B501F08DFC08BD08B502480B
:1010740001F0DEFA08BD00BF4018002082B0002154
:1010840000910B4B5A6C42F480425A645A6C02F43D
:1010940080420092009A01911A6C42F080521A64C4
:1010A4001B6C03F080530193019B02B0704700BF97
:1010B4000038024010B582B00368B3F1804F04D009
:1010C4001E4A93422CD002B010BD04460023009364
:1010D4001B4A116C41F001011164126C02F001020F
:1010E4000092009A1748184A02604FF0C0624260AA
:1010F4008360C3604FF4806202614FF480524261A6
:101104004FF480428261C3610362436201F0AAF931
:1011140018B90C4B63629C63D5E7FFF7C5FBF8E78E
:1011240000230193064B1A6C42F002021A641B6CF2
:1011340003F002030193019BC5E700BF00040040D4
:1011440000380240401800208860024000B587B093
:1011540000230193029303930493059302680E4BB7
:101164009A4202D007B05DF804FB002300930B4BB6
:101174001A6B42F002021A631B6B03F00203009322
:10118400009B0123019302230293059301A90448C0
:1011940000F0DEFFE6E700BF000400400038024034
:1011A4000004024030B4036A026A22F001020262BF
:1011B4004268846924F0730C0C6844EA0C0423F03C
:1011C400020C8B6843EA0C03114DA84203D005F5C9
:1011D4008065A84205D123F00803CD682B4323F092
:1011E40004030B4DA84203D005F58065A84207D13E
:1011F40022F440724D6945EA020C8A6942EA0C0203
:10120400426084614A684263036230BC704700BF35
:101214000000014030B4036A026A22F48072026260
:101224004268C46924F0730C0C6844EA0C0523F486
:1012340000738C6843EA0423114CA04203D004F5E4
:101244008064A04206D123F40063CC6843EA0423FB
:1012540023F480630A4CA04203D004F58064A042C6
:1012640007D122F440524C6942EA04128C6942EAE2
:1012740004124260C5614A68C263036230BC7047AD
:101284000000014030B4036A026A22F48052026210
:101294004468C26922F4E6420D6842EA052223F456
:1012A40000538D6843EA0533094DA84203D005F580
:1012B4008065A84204D124F480444D6944EA85142D
:1012C4004460C2614A680264036230BC704700BF74
:1012D4000000014010B4036A046A24F001040462AB
:1012E400846924F0F00C4CEA021223F00A030B4345
:1012F400826103625DF8044B704710B4036A046AA8
:1013040024F010040462846924F4704C4CEA023220
:1013140023F0A00343EA0113826103625DF8044BE6
:101324007047836823F070030B4343F00703836023
:1013340070477047704700000368324A904212D0E9
:10134400B0F1804F0FD0A2F57C4290420BD002F551
:101354008062904207D002F58062904203D002F589
:101364007842904203D123F070034A681343254A1C
:1013740090422AD0B0F1804F27D0A2F57C4290420F
:1013840023D002F5806290421FD002F58062904221
:101394001BD002F57842904217D002F57052904269
:1013A40013D002F5806290420FD002F58062904221
:1013B4000BD0A2F59832904207D002F58062904299
:1013C40003D002F58062904203D123F44073CA68CB
:1013D400134323F080034A6913438A68C2620A688C
:1013E4008262084A904203D002F58062904201D1A1
:1013F4000A690263026842F0040202600122426147
:10140400036070470000014040B310B5044690F8F3
:101414003D30F3B1022384F83D30214651F8040BEA
:10142400FFF78AFF012384F8463084F83E3084F8BD
:101434003F3084F8403084F8413084F8423084F8F6
:10144400433084F8443084F8453084F83D3000203B
:1014540010BD80F83C30FFF72DFEDBE7012070471C
:1014640040B310B5044690F83D30F3B1022384F83C
:101474003D30214651F8040BFFF75EFF012384F849
:10148400463084F83E3084F83F3084F8403084F8A5
:10149400413084F8423084F8433084F8443084F88E
:1014A400453084F83D30002010BD80F83C30FFF713
:1014B40040FFDBE70120704740B310B5044690F8C5
:1014C4003D30F3B1022384F83D30214651F8040B3A
:1014D400FFF732FF012384F8463084F83E3084F865
:1014E4003F3084F8403084F8413084F8423084F846
:1014F400433084F8443084F8453084F83D3000208B
:1015040010BD80F83C30FFF715FFDBE70120704782
:1015140030B4036A026A22F01002026244688269EB
:1015240022F4E6420D6842EA052223F020038D6886
:1015340043EA0513114DA84203D005F58065A8427E
:1015440006D123F08003CD6843EA051323F040035A
:101554000A4DA84203D005F58065A84207D124F4BA
:1015640040644D6944EA85048D6944EA8504446015
:1015740082614A688263036230BC704700000140A4
:1015840090F83C30012B28D010B50446012380F894
:101594003C300C2A1CD8DFE802F0071B1B1B0C1B79
:1015A4001B1B111B1B1B16000068FFF7FBFD002013
:1015B4000FE00068FFF7ACFF00200AE00068FFF7C7
:1015C40029FE002005E00068FFF75CFE002000E033
:1015D4000120002384F83C3010BD0220704738B548
:1015E40090F83C30012B66D004460D46012380F868
:1015F4003C300C2A5AD8DFE802F0075959591B59D4
:1016040059593059595944000068FFF7CBFD2268F5
:10161400936943F0080393612268936923F00403F8
:1016240093612268936929690B43936100203EE02A
:101634000068FFF76DFF2268936943F400639361C8
:101644002268936923F4806393612268936929690A
:1016540043EA01239361002029E00068FFF7DAFDE3
:101664002268D36943F00803D3612268D36923F065
:101674000403D3612268D36929690B43D361002031
:1016840015E00068FFF7FEFD2268D36943F40063A8
:10169400D3612268D36923F48063D3612268D36958
:1016A400296943EA0123D361002000E001200023DB
:1016B40084F83C3038BD0220FCE710B4846824F47C
:1016C4007F4C42EA03220A4342EA0C0282605DF83C
:1016D400044B704790F83C30012B78D010B5044689
:1016E400012380F83C30022380F83D30026893687F
:1016F40023F47F4323F0770393600B68602B4CD073
:1017040023D8402B54D011D8202B03D00AD80BB1A6
:10171400102B05D119462068FFF703FE002028E0AE
:10172400012026E0302BF5D0012022E0502B0AD1F5
:10173400CA6849680068FFF7CDFD50212068FFF7AB
:10174400F0FD002015E0012013E0B3F5805F3AD0EE
:10175400B3F5005F14D0702B37D1CB684A68896821
:101764000068FFF7AAFF2268936843F07703936049
:101774000020012384F83D30002384F83C3010BD60
:10178400CB684A6889680068FFF797FF2268936806
:1017940043F4804393600020EBE7CA68496800681B
:1017A400FFF7ABFD60212068FFF7BBFD0020E0E7F9
:1017B400CA6849680068FFF78DFD40212068FFF77B
:1017C400B0FD0020D5E70020D3E70120D1E70220B7
:1017D400704701F01F014FF0010C0CFA01FC036A81
:1017E40023EA0C030362036A8A40134303627047CB
:1017F40010B504460846002942D194F83E30DBB2C5
:10180400013B18BF0123002B6ED1002851D10223C4
:1018140084F83E30012201462068FFF7DAFF23688E
:10182400334A934203D002F58062934203D15A6C47
:1018340042F400425A6423682D4A934249D0B3F1DA
:10184400804F46D0A2F57C42934242D002F580629A
:1018540093423ED002F5806293423AD002F5784238
:10186400934236D002F57052934232D0A2F59432AC
:1018740093422ED01A6842F001021A60002032E02E
:10188400042908D008290DD094F84130DBB2013B7B
:1018940018BF0123B7E794F83F30DBB2013B18BF10
:1018A4000123B0E794F84030DBB2013B18BF0123B9
:1018B400A9E7042805D0082807D0022384F841307A
:1018C400A8E7022384F83F30A4E7022384F84030D9
:1018D400A0E79A6802F00702062A07D01A6842F0C5
:1018E40001021A60002010BD0120FCE70020FAE785
:1018F4000000014010B504460846002942D194F87E
:101904003E30DBB2013B18BF0123002B6ED100280F
:1019140051D1022384F83E30012201462068FFF7AA
:1019240058FF2368334A934203D002F580629342FE
:1019340003D15A6C42F400425A6423682D4A9342FC
:1019440049D0B3F1804F46D0A2F57C42934242D0B5
:1019540002F5806293423ED002F5806293423AD00F
:1019640002F57842934236D002F57052934232D057
:10197400A2F5943293422ED01A6842F001021A6002
:10198400002032E0042908D008290DD094F8413011
:10199400DBB2013B18BF0123B7E794F83F30DBB259
:1019A400013B18BF0123B0E794F84030DBB2013BA0
:1019B40018BF0123A9E7042805D0082807D002236B
:1019C40084F84130A8E7022384F83F30A4E70223D7
:1019D40084F84030A0E79A6802F00702062A07D08C
:1019E4001A6842F001021A60002010BD0120FCE7D1
:1019F4000020FAE70000014090F83C20012A3DD085
:101A040010B40346012280F83C20022280F83D20D5
:101A140002685068946820F0700C086840EA0C0072
:101A240050601A68164882421AD0B2F1804F17D01B
:101A3400A0F57C40824213D000F5806082420FD032
:101A440000F5806082420BD000F57840824207D0D6
:101A540000F57050824203D0A0F59430824204D144
:101A640024F08004496821439160012283F83D20D9
:101A7400002083F83C005DF8044B70470220704757
:101A840000000140002800F09B8070B50D4604461C
:101A94004F4B1B6803F00F038B4208D2CBB24C4A66
:101AA4001370136803F00F038B4240F08B8023689C
:101AB40013F0020F17D013F0040F04D0454A9368B3
:101AC40043F4E0539360236813F0080F04D0414AB1
:101AD400936843F4604393603E4A936823F0F003B1
:101AE400A1680B439360236813F0010F32D063683D
:101AF400012B21D09A1E012A25D9364A126812F0E8
:101B0400020F61D033498A6822F0030213438B60C9
:101B140000F044FF06462F4B9B6803F00C036268F9
:101B2400B3EB820F16D000F039FF801B41F28833EB
:101B34009842F0D9032042E0264A126812F4003F8A
:101B4400E0D101203BE0234A126812F0007FD9D192
:101B5400012034E01E4B1B6803F00F03AB4207D98E
:101B6400EAB21B4B1A701B6803F00F03AB422DD172
:101B7400236813F0040F06D0164A936823F4E05345
:101B8400E1680B439360236813F0080F07D0114AF0
:101B9400936823F46043216943EAC103936000F02E
:101BA40021F80C4B9B68C3F303130B4AD35CD84056
:101BB4000A4B18600A4B186800F0A4FE002070BDA0
:101BC400012070470120FAE70120F8E70120F6E739
:101BD400003C024000380240203500081400002078
:101BE4001000002008B5464B9B6803F00C03082B3B
:101BF40005D00C2B43D0042B7FD1424819E0404B35
:101C04005A6802F03F025B6813F4800F12D03C4B19
:101C14005968C1F388113B480023A1FB0001FEF77A
:101C2400EFFA374B5B68C3F3014301335B00B0FB4E
:101C3400F3F008BD324B5868C0F388104FEA401CDB
:101C4400BCEB000C6EEB0E0E4FEA8E1343EA9C6362
:101C54004FEA8C11B1EB0C0163EB0E03DB0043EA9A
:101C64005173C90011EB000C43F1000399020023E6
:101C74004FEA8C2041EA9C51FEF7C2FAD1E7204B8F
:101C84005A6802F03F025B6813F4800F10D01C4BBB
:101C94005968C1F388111B480023A1FB0001FEF71A
:101CA400AFFA174B5B68C3F30273B0FBF3F0C0E702
:101CB400134B5868C0F388104FEA401CBCEB000C6F
:101CC4006EEB0E0E4FEA8E1343EA9C634FEA8C11BF
:101CD400B1EB0C0163EB0E03DB0043EA5173C90063
:101CE40011EB000C43F10003990200234FEA8C200E
:101CF40041EA9C51FEF784FAD3E7034899E700BF11
:101D04000038024040787D010024F400002800F0EF
:101D1400018270B582B00446036813F0010F41D00C
:101D2400994B9B6803F00C03042B32D0964B9B68B1
:101D340003F00C03082B27D0934B9B6803F00C0390
:101D44000C2B59D06368B3F5803F5BD0B3F5A02F5B
:101D54005ED08D4B1A6822F480321A601A6822F41D
:101D640080221A606368002B5CD000F017FE0546E1
:101D7400854B1B6813F4003F14D100F00FFE401B89
:101D84006428F5D90320CCE17F4B5B6813F4800F02
:101D9400D2D07D4B1B6813F4003F03D06368002B43
:101DA40000F0BA81236813F0020F60D0764B9B6871
:101DB40013F00C0F4AD0744B9B6803F00C03082BF0
:101DC4003FD0714B9B6803F00C030C2B69D0E36884
:101DD400002B75D06D4B01221A6000F0DFFD054623
:101DE400694B1B6813F0020F61D100F0D7FD401B53
:101DF4000228F5D9032094E1634B5B6813F4800F48
:101E0400A0D0C6E7604A136843F480331360A9E79F
:101E14005D4B1A6842F480221A601A6842F48032D8
:101E24001A609FE700F0BAFD0546574B1B6813F490
:101E3400003FB7D000F0B2FD401B6428F5D9032061
:101E44006FE1514B5B6813F4800FBAD14E4B1B68A2
:101E540013F0020F03D0E368012B40F05F814A4A7C
:101E6400136823F0F803216943EAC103136023686C
:101E740013F0080F49D06369002B33D0434B012280
:101E8400C3F8802E00F08AFD05463F4B5B6F13F0CC
:101E9400020F3AD100F082FD401B0228F5D903203D
:101EA4003FE1394B5B6813F4800F90D1CEE7364A9B
:101EB400136823F0F803216943EAC1031360D6E7EA
:101EC400324B00221A6000F069FD05462E4B1B6858
:101ED40013F0020FCBD000F061FD401B0228F5D9AE
:101EE40003201EE1294B0022C3F8802E00F056FD8A
:101EF4000546254B5B6F13F0020F06D000F04EFD34
:101F0400401B0228F5D903200BE1236813F0040FCA
:101F140076D01D4B1B6C13F0805F33D100230193EB
:101F2400194B1A6C42F080521A641B6C03F08053F4
:101F34000193019B0125164B1B6813F4807F29D064
:101F4400A368012B3AD0052B3ED00F4B1A6F22F019
:101F540001021A671A6F22F004021A67A368002BA1
:101F64003CD000F01BFD0646074B1B6F13F0020F1D
:101F740045D100F013FD801B41F288339842F3D918
:101F84000320CEE00025D6E7003802400000474297
:101F9400007000406B4A136843F48073136000F0D0
:101FA400FDFC0646674B1B6813F4807FC8D100F024
:101FB400F5FC801B0228F5D90320B2E0624A136FB6
:101FC40043F001031367C9E75F4B1A6F42F0040241
:101FD4001A671A6F42F001021A67BFE700F0DEFCCD
:101FE4000646594B1B6F13F0020F08D000F0D6FCC5
:101FF400801B41F288339842F3D9032091E0EDB974
:10200400A369002B00F08C804F4A926802F00C0206
:10201400082A54D0022B17D04C4B00221A6600F029
:10202400BDFC0446484B1B6813F0007F45D000F00C
:10203400B5FC001B0228F5D9032072E0424A136C58
:1020440023F080531364DBE7404B00221A6600F050
:10205400A5FC05463C4B1B6813F0007F06D000F03E
:102064009DFC401B0228F5D903205AE0E369226A4B
:102074001343626A43EA8213A26A5208013A43EAAA
:102084000243E26A43EA0263226B43EA02732E4A82
:1020940053602E4B01221A6600F080FC04462A4B42
:1020A4001B6813F0007F06D100F078FC001B0228A7
:1020B400F5D9032035E0002033E0002031E0012B86
:1020C40031D0214B5B6803F48001E26991422CD149
:1020D40003F03F02216A8A4229D1616A47F6C0723D
:1020E4001A40B2EB811F24D103F44031A26A520892
:1020F400013AB1EB024F1ED103F07062E16AB2EB18
:10210400016F1AD103F0E043226BB3EB027F16D1C7
:10211400002006E001207047012002E0012000E0D9
:10212400002002B070BD0120FBE70120F9E7012087
:10213400F7E70120F5E70120F3E70120F1E70120AB
:10214400EFE700BF00700040003802400000474243
:1021540000230F2B00F2E38070B582B065E0856840
:102164004FEA430E032404FA0EF425EA0405CC686E
:1021740004FA0EF42C438460446824EA02044A6896
:10218400C2F300129A40224342605CE0DC08083447
:1021940050F8242003F00705AD004FF00F0E0EFA9F
:1021A40005FE22EA0E0E0A69AA4042EA0E0240F82F
:1021B40024205CE0062200E0002202FA0EF22A4308
:1021C4000234574D45F82420564A94686FEA0C02AD
:1021D40024EA0C054E6816F4801F01D04CEA04056D
:1021E400504CA560E46802EA04054E6816F4001F2A
:1021F40001D04CEA04054B4CE560646802EA04052E
:102204004E6816F4003F01D04CEA0405454C656065
:10221400246822404D6815F4803F01D04CEA040242
:10222400404C226001330F2B77D801229A400C686E
:1022340004EA020C32EA0404F4D14C6804F0030406
:10224400013C012C8BD94A6802F00302032A09D00D
:10225400C4685D000322AA4024EA02048A68AA40F2
:102264002243C2604A6802F00302022A8ED0046844
:102274004FEA430E032202FA0EF224EA02044A68E9
:1022840002F0030202FA0EF2224302604A6812F4D8
:10229400403FC7D000220192234A546C44F4804446
:1022A4005464526C02F480420192019A9C08A51C69
:1022B4001B4A52F8255003F0030E4FEA8E0E0F22EC
:1022C40002FA0EF225EA0205184A90423FF474AF6E
:1022D40002F58062904216D002F58062904214D0DA
:1022E40002F58062904212D002F58062904210D0D2
:1022F40002F5806290420ED002F5806290423FF473
:1023040059AF072259E7012257E7022255E7032272
:1023140053E7042251E705224FE702B070BD70472E
:1023240000380140003C01400038024000000240F7
:102334000AB181617047090481617047436901EA08
:10234400030221EA030141EA0241816170477047B7
:1023540008B5054B5B69034200D108BD024B5861C7
:10236400FFF7F5FFF9E700BF003C014030B4056812
:102374002C6824F480242C60046863608368402BF8
:1023840005D0036899600368DA6030BC704703685D
:102394009A600368D960F8E710B40368D9B21039B9
:1023A4000A4AA2FB01421209094CA25CC2655F29D8
:1023B40007D96FF3090304338365806D5DF8044B1B
:1023C40070476FF309038365F7E700BFABAAAAAAB6
:1023D40018350008836A826992B9012B0AD0022B4E
:1023E40002D00BB100207047C36A13F0807F28D15C
:1023F40000207047C36AB3F1C07F24D00020704727
:10240400B2F5005F09D0022B25D9032B25D1C36A6D
:1024140013F0807F23D100207047032B03D8DFE81B
:1024240003F01404140A00207047C36A13F0807F79
:102434000DD100207047C36AB3F1C07F09D00020DA
:102444007047012070470120704701207047012028
:102454007047012070470120704700207047012019
:102464007047000070B5044600F098FA002C5BD069
:102474000546022384F83530002384F8343022687A
:10248400136823F00103136023681A6812F0010F24
:102494000AD000F083FA431B052BF5D9202363658A
:1024A400032084F8350070BD1A6820491140626821
:1024B400A0680243E0680243206902436069024362
:1024C400A0690243E0690243206A02430A43616A45
:1024D40004291ED01A602668756925F00705636A09
:1024E4001D43042B07D1A36A1D43E36A1BB1204695
:1024F400FFF770FF90B975612046FFF74DFFE26D5D
:102504003F239340836000206065012384F83530C5
:10251400C9E7E16A206B01430A43DBE740236365B3
:10252400012084F83500BEE70120BCE73F8010F0AD
:1025340038B50446856D90F8340001282BD001206D
:1025440084F8340094F83500C0B2012804D0002384
:1025540084F83430022038BD022084F8350000208D
:1025640060652046FFF702FFE26D3F239340AB60B6
:102574002268136843F016031360236C23B12268A6
:10258400136843F0080313602268136843F00103DF
:1025940013600020DFE70220DDE770B50446866D96
:1025A40000F0FCF994F83530DBB2022B06D080231E
:1025B4006365002384F83430012070BD0546226829
:1025C400136823F0160313602268536923F0800311
:1025D4005361236CE3B12268136823F0080313608A
:1025E4002268136823F00103136023681B6813F047
:1025F400010F11D000F0D2F9431B052BF5D920238C
:102604006365032084F83500002384F83430D4E76C
:10261400A36C002BDFD1E3E7E26D3F239340B3606B
:10262400012384F83530002084F83400C5E7000025
:10263400F0B583B0044600230193724B1D68724BBE
:10264400A3FB0535AD0A876D3E68C26D0823934030
:10265400334210D003681A6812F0040F0BD01A68C2
:1026640022F004021A60C26D08239340BB60436DDC
:1026740043F001034365E26D01239340334209D0E3
:102684002268526912F0800F04D0BB60636D43F07E
:1026940002036365E26D04239340334209D0226848
:1026A400126812F0020F04D0BB60636D43F00403A0
:1026B4006365E26D10239340334224D0226812688C
:1026C40012F0080F1FD0BB6023681A6812F4802F21
:1026D4000DD01B6813F4002F04D1236C9BB120464A
:1026E400984710E0A36C73B1204698470BE01A6832
:1026F40012F4807F03D11A6822F008021A60236C56
:102704000BB120469847E26D20239340334255D0C5
:102714002268126812F0100F50D0BB6094F8353064
:10272400DBB2052B0ED023681A6812F4802F33D045
:102734001B6813F4002F2AD1636C002B3ED0204673
:1027440098473BE02268136823F01603136022685D
:10275400536923F080035361236CA3B12268136887
:1027640023F008031360E26D3F239340BB60012311
:1027740084F83530002384F83430236D002B3FD0A7
:10278400204698473CE0A36C002BE7D1EBE7E36BD2
:10279400A3B12046984711E01A6812F4807F09D14A
:1027A4001A6822F010021A60012384F835300023DD
:1027B40084F83430E36B0BB120469847636DFBB16A
:1027C400636D13F0010F17D0052384F835302268A8
:1027D400136823F001031360019B01330193AB429F
:1027E40004D823681B6813F0010FF5D1012384F882
:1027F4003530002384F83430E36C0BB1204698471D
:1028040003B0F0BD14000020B5814E1B002807DB87
:1028140000F01F02400901239340024A42F820308D
:10282400704700BF00E100E0002808DB0901C9B2DD
:1028340000F1604000F5614080F80013704700F03B
:102844000F000901C9B2014B1954704714ED00E09F
:1028540000B500F00700C0F1070CBCF1040F28BF5D
:102864004FF0040C031D062B0FD9C31E4FF0FF3E7F
:102874000EFA0CF021EA000199400EFA03FE22EA56
:102884000E0241EA02005DF804FB0023EEE70000BB
:10289400074AD36823F4E0631B041B0C000200F412
:1028A400E060034343F0BF6343F40033D3607047F5
:1028B40000ED00E010B50446054BD868C0F30220D3
:1028C400FFF7C6FF01462046FFF7AEFF10BD00BF6D
:1028D40000ED00E008B5FFF799FF08BD0138B0F13D
:1028E400807F0BD24FF0E0235861054AF02182F833
:1028F40023100020986107221A6170470120704755
:1029040000ED00E010B504460E4B1A784FF47A73CC
:10291400B3FBF2F30C4A1068B0FBF3F0FFF7DEFFF1
:1029240068B90F2C01D901200AE0002221464FF09A
:10293400FF30FFF7BFFF054B1C60002000E00120C3
:1029440010BD00BF0C000020140000201000002067
:1029540008B50B4B1A6842F400721A601A6842F404
:1029640080621A601A6842F480721A600320FFF7CA
:102974008FFF0F20FFF7C6FFFEF780FB002008BD86
:10298400003C0240034A1168034B1B780B4413605C
:10299400704700BF301900200C000020014B18685C
:1029A400704700BF30190020034AD2F8883043F43E
:1029B4007003C2F88830704700ED00E0DFF834D0CF
:1029C400FFF7F2FF0C480D490D4A002302E0D458EA
:1029D400C4500433C4188C42F9D30A4A0A4C002365
:1029E40001E013600432A242FBD300F019F8FEF7B1
:1029F4007DF870470000022000000020180000202D
:102A0400103900081800002034190020FEE70244A1
:102A14000346934200D1704703F8011BF9E7000015
:102A240070B50D4D0D4C641BA4100026A64209D1AF
:102A34000B4D0C4C00F048FD641BA4100026A6426C
:102A440005D170BD55F8043B98470136EEE755F8BB
:102A5400043B98470136F2E70839000808390008B2
:102A6400083900080C39000810EE103A07B51F4A5F
:102A740023F00043934207D8DFED1D0A002003B082
:102A84005DF804EB00F08EB8B3F1FF4F04D330EEE1
:102A9400400A03B05DF804FB684600F0CBF800F090
:102AA400030001280AD002280FD0C0B9DDED010AC5
:102AB4009DED000A012000F075F8EAE7DDED010A5A
:102AC4009DED000A00F016F8E3E7DDED010A9DED47
:102AD400000A012000F066F8B1EE400AD9E7DDED06
:102AE400010A9DED000A00F005F8F5E7D80F493F0B
:102AF4000000000010EE103A23F00043B3F1485FE9
:102B0400F0EE406AB7EE000A04D2FDEEE67A17EE64
:102B1400902A42B326EEA67ADFED1A7A9FED1A6A5E
:102B24001A4AA7EE276A9342DFED197AE6EE077A8E
:102B34009FED186AA7EE876ADFED177AE6EE077A4B
:102B44009FED166AA7EE876A60EEE60A26EE076A2C
:102B5400F6EE007AE7EE060A67EE277A04D877EEF7
:102B6400E07A30EE670A70470D4A93429ABF03F148
:102B74007F4307EE103AB5EE027A30EE470A77EE5D
:102B8400C77AECE74ED747ADF6740F319999993E61
:102B94007CF293B4010DD037610BB6BAABAA2A3DCF
:102BA4000000483F10EE103A23F00043B3F1485FB1
:102BB40004D2FDEEC07A17EE903A5BB320EE007AB1
:102BC400DFED157A9FED156AA7EE276ADFED147A1B
:102BD400E6EE077A9FED136AA7EE876ADFED127AB5
:102BE40060EE076AE6EE077A30B99FED106AA7EE49
:102BF400276AA6EE260A704767EEE67AB6EE006A02
:102C0400E0EE867AD7EE870ADFED097AE6EEA70AC8
:102C140030EE600A704700BFD3C92E2F342FD7B2CD
:102C24001BEF3836010D50B98988083CABAA2ABE7F
:102C3400ABAA2A3EF0B510EE106A884B26F0004588
:102C44009D4287B0044605D8002380ED000A436006
:102C5400002022E0824B9D423AD826F00043002E09
:102C64009FED807A804A23F00F0318DD934270EEC3
:102C7400477A09BF9FED7D7ADFED7D6ADFED7D6ADE
:102C840077EEC77A37EEE67A77EEC77A80ED007A88
:102C940077EEE67AC0ED017A012007B0F0BD9342E9
:102CA40070EE077A09BF9FED717ADFED716ADFED8F
:102CB400716A77EE877A37EEA67A77EEC77A80ED77
:102CC400007A77EEA67AC0ED017A4FF0FF30E4E7A0
:102CD400694B9D4273D800F0DDF89FED687AF6EEFB
:102CE400007AE0EE077AFDEEE77AB8EEE77A17EEBF
:102CF400900ADFED5C7AA7EE670A1F28DFED5C7AA5
:102D040067EE277AB1EE476A70EE676A16EE901A9C
:102D140009DC5B4A471E26F0004352F8272023F0C3
:102D2400FF03934207D1C1F3C752C2EBD552082A1D
:102D34004FEAE55314DC216094ED007A30EE470A43
:102D4400002E30EE670A84ED010AA6DAB1EE477A66
:102D5400B1EE400A84ED007A84ED010A40429CE71A
:102D6400DFED425AF0EE406AE6EE256A70EE667ACE
:102D7400E6EE257ADFED3F5AD7EE257A76EEE75A6E
:102D840015EE902AC2F3C7515B1A192B04DCC4ED6B
:102D9400005AB0EE660ACFE7DFED3A5AB0EE660AA3
:102DA400A6EE250A76EEC07ADFED376AE6EE257ADE
:102DB400D7EE267A30EE677A84ED007ABCE7B5F177
:102DC400FF4F06D370EE407AC0ED017AC0ED007A71
:102DD4003EE7EA15863AA5EBC25307EE903ABDEEFC
:102DE400E77ADFED2A6AB8EEC77A77EEC77A8DED17
:102DF400037A67EEA67ABDEEE77AB8EEC77A77EE85
:102E0400C77A8DED047A67EEA67AF5EE407AF1EE94
:102E140010FACDED057A1ED1B5EE407AF1EE10FA36
:102E24000CBF012302231A4901910221009103A836
:102E3400214600F037F8002EBFF62FAFD4ED007A0C
:102E4400F1EE677AC4ED007AD4ED017AF1EE677A97
:102E5400C4ED017A82E70323E5E700BFD80F493FB9
:102E6400E3CB1640800FC93FD00FC93F004435372C
:102E74004344353708A3852E800F494384F9223F04
:102E84003035000800A3852E32318D2400008043A4
:102E9400B035000810EE103A23F0004300EE103A6B
:102EA400704700002DE9F04F2DED048BD9B090460A
:102EB4000190B64A669818F1040F52F820A00F4604
:102EC40003F1FF3B26DBB8F1030248BF08F104021B
:102ED400D210551C67999FEDB17AE800A2EB0B065E
:102EE4000290A8EBC5050AEB0B0C1CAC01EB860E9B
:102EF4000020604510DD1CA901EB83000DF58879E5
:102F04000026564524DCDDF804E0DFEDA47A84468F
:102F1400002416E00022DCE7C6425DBF5EF8201004
:102F240007EE901AF8EEE77AF0EE477AE4EC017ACD
:102F34000130DEE7FEEC016A3CED017AE6EE877AC9
:102F440001345C45F6DDE9EC017A01360430D8E75A
:102F540008A901EB8A0104916799DFED8F8A9FED3F
:102F64008D9A01EB820203925446A200059258AA5C
:102F740002EB840212ED140A44A908AA01EB8400AE
:102F840094462646002E4CDC2846CDE9062300F064
:102F9400F1F9B0EE408AB4EE000A28EE000A00F01F
:102FA4004FFAF2EE007AA0EE678A002DDDE90623DF
:102FB400FDEEC87A17EE909AF8EEE77A38EE678A53
:102FC40041DD04F1FF3C08A9C5F1080E51F82C605D
:102FD40046FA0EF0814400FA0EF0361AC5F10700E5
:102FE40041F82C600641002E3CDD4FF0000E09F143
:102FF40001097046744568DC002D03DD012D74D091
:10300400022D7DD0022E2DD1B7EE000A30EE488A73
:1030140040B32846069300F0ADF9069B38EE408A8B
:1030240020E060EE287A013EFDEEE77AF8EEE77ADA
:10303400A7EEC90ABDEEC00AACEC010A30ED010AE4
:1030440037EE800A9EE705D1601E08A951F820607A
:10305400F611C8E7F6EE007AB4EEE78AF1EE10FA5C
:1030640031DA0026B5EE408AF1EE10FA40F098808D
:10307400601E002250454BDA002A65D0013C08ABA3
:10308400083D53F82430002BF8D02846B7EE000A48
:1030940000F070F9631C44AA9FED3F7A990002EB9B
:1030A40083022346002B80F2A9802346002BC0F222
:1030B400C78044AA02EB8305DFF8D4C0DFED377A7A
:1030C4000020E21AB1E002268FE752F8041B48B947
:1030D40021B1C1F5807142F8041C01210EF1010EE9
:1030E400084687E7C1F1FF01F5E704F1FF3C08AAB0
:1030F40052F82C2002F07F0208A941F82C2081E725
:1031040004F1FF3C08AA52F82C2002F03F02F3E736
:1031140008A951F8201001380A43ABE7013250F8EE
:10312400046D002EFAD0059901F5B0710DEB010084
:10313400E6181CA904F1010C4C3801EB8606224464
:10314400624504DA144610E704980122E7E703997C
:10315400DDF804E051F82C10059107EE901AF8EE12
:10316400E77A0024E6EC017ADFED0C7AB1465C459F
:1031740004DDE0EC017A0CF1010CE1E7FEEC016AFC
:1031840039ED017A0134E6EE877AF0E7F438000885
:10319400C8380008000080430000803B00000000A5
:1031A400029BB0EE480AA3EB080000F0E3F81FED21
:1031B400077AB4EEC70AF1EE10FA19DB5FED0A7A6A
:1031C40060EE277A08AAFDEEE77A0835F8EEE77A8A
:1031D400A7EEC70AFDEEE77ABDEEC00A10EE103A7C
:1031E40042F8243017EE903A013442F824304CE788
:1031F400BDEEC00A08AA10EE103AF6E708A850F887
:103204002300019007EE900AF8EEE77A013B67EE9F
:10321400807A20EE070A62ED017A43E7FCEC016A4A
:10322400B5EC017AE6EE877A0130504501DC904234
:10323400F4DD58A800EB820242ED287A013B35E721
:10324400669B022B09DC002B27DC40D009F0070029
:1032540059B0BDEC048BBDE8F08F669B032BF5D110
:1032640030AA0B1F13441A462046002850DC22467D
:10327400012A5DDC30AB5FED377A0B44012C67DC4F
:10328400DDED306A9DED317A002E67D1C7ED006A1D
:1032940087ED017AC7ED027AD8E730AB1FED417AAA
:1032A4000B442246002A24DA4EB3F1EE477AC7EDE6
:1032B400007ADDED307A77EEC77A31AA01239C4299
:1032C40020DA0EB1F1EE677AC7ED017ABEE730ABD2
:1032D4005FED4E7A0B44002C05DA0EB1F1EE677AFD
:1032E400C7ED007AB2E733ED017A013C77EE877AD5
:1032F400F1E773ED017A013A37EE277AD2E7F0EE7F
:10330400477AD4E7B2EC017A013377EE877AD6E7CD
:1033140072ED017AD2ED016A37EEA67A013877EEC2
:10332400C77A82ED007A77EEA67AC2ED017A9CE73D
:1033340073ED017AD3ED016A37EEA67A013A77EE9E
:10334400C77A83ED007A77EEA67AC3ED017A8FE728
:1033540033ED017A013C77EE877A8FE7F1EE666A06
:10336400B1EE477AC7ED006A87ED017AF1EE677A2C
:1033740090E700BF10EE103A33F000422BD0B2F1C8
:10338400FF4F02D330EE000A704713F0FF4F23D1F2
:10339400244BDFED257A984220EE270A17DB10EE46
:1033A400103AC3F3C752193A4CF25031884215DD32
:1033B400DFED1E7ADFED1E6A10EE103AB0EE677A8A
:1033C400002BB8BFF0EE667A27EE870A7047DFED70
:1033D400197A27EE800A7047D20DE5E71044FE28DB
:1033E400E6DC002806DD23F0FF4343EAC05300EE89
:1033F400103A704710F1160F09DADFED0E7ADFED9F
:103404000E6A10EE103AB0EE677A002BD9E7193045
:1034140023F0FF4343EAC0539FED080A07EE903AB6
:10342400D7E700BFB03CFFFF0000004CCAF249716F
:10343400CAF249F16042A20D6042A28D000000333D
:1034440010EE103AC3F3C7527F3A162A23F0004114
:103454002BDC002A12DADFED197A30EE270AB5EEFA
:10346400C00AF1EE10FA06DD002B24DA0029144B11
:1034740008BF4FF0004300EE103A70471149114164
:103484000B42FAD0DFED0D7A30EE270AB5EEC00A12
:10349400F1EE10FAEFDD002BBEBF4FF4000040FA4E
:1034A40002F29B1823EA0103E5E7B1F1FF4FE4D3ED
:1034B40030EE000A70470023DDE700BFCAF249710D
:1034C400000080BFFFFF7F00F8B500BFF8BC08BC58
:1034D4009E467047F8B500BFF8BC08BC9E467047CE
:1034E40053696E65000000005361770054726900EF
:1034F4005069616E6F000000477569746172000065
:103504004472756D000000003F000000576176654D
:103514003A200000000610160006101600000000F5
:10352400000000000102030406070809000FC93F58
:10353400000F494000CB9640000FC9400053FB40A8
:1035440000CB164100ED2F41000F4941003162418B
:1035540000537B41003A8A4100CB9641005CA34171
:1035640000EDAF41007EBC41000FC94100A0D54130
:103574000031E24100C2EE410053FB4100F203423C
:10358400003A0A420083104200CB164200141D4246
:10359400005C234200A5294200ED2F42003636424A
:1035A400007E3C4200C74242000F4942A200000094
:1035B400F9000000830000006E0000004E000000CF
:1035C400440000001500000029000000FC00000079
:1035D4002700000057000000D1000000F5000000A3
:1035E40034000000DD000000C0000000DB0000002B
:1035F4006200000095000000990000003C000000FB
:10360400430000009000000041000000FE000000A4
:103614005100000063000000AB000000DE00000069
:10362400BB000000C500000061000000B7000000FE
:10363400240000006E0000003A0000004200000078
:103644004D000000D2000000E00000000600000071
:10365400490000002E000000EA00000009000000FC
:10366400D1000000920000001C000000FE000000D9
:103674001D000000EB0000001C000000B100000071
:1036840029000000A70000003E000000E800000040
:103694008200000035000000F50000002E0000004C
:1036A400BB0000004400000084000000E9000000AA
:1036B4009C0000007000000026000000B400000020
:1036C4005F0000007E00000041000000390000009F
:1036D40091000000D60000003900000083000000C3
:1036E4005300000039000000F40000009C000000BA
:1036F400840000005F0000008B000000BD0000009B
:10370400F9000000280000003B0000001F0000003A
:10371400F800000097000000FF000000DE00000039
:1037240005000000980000000F000000EF000000FA
:103734002F000000110000008B0000005A00000060
:103744000A0000006D0000001F0000006D00000072
:10375400360000007E000000CF00000027000000BB
:10376400CB00000009000000B70000004F0000007B
:10377400460000003F000000660000009E000000BC
:103784005F000000EA0000002D000000750000004A
:1037940027000000BA000000C7000000EB00000092
:1037A400E5000000F10000007B0000003D00000087
:1037B4000700000039000000F70000008A00000044
:1037C4005200000092000000EA0000006B000000BC
:1037D400FB0000005F000000B10000001F000000BB
:1037E4008D0000005D00000008000000560000008D
:1037F400030000003000000046000000FC00000050
:103804007B0000006B000000AB000000F000000033
:10381400CF000000BC000000200000009A0000005F
:10382400F4000000360000001D000000A9000000A4
:10383400E300000091000000610000005E00000051
:10384400E60000001B000000080000006500000006
:1038540099000000850000005F00000014000000D3
:10386400A000000068000000400000008D0000007F
:10387400FF000000D8000000800000004D000000A0
:103884007300000027000000310000000600000063
:10389400060000001500000056000000CA000000E9
:1038A40073000000A8000000C900000060000000D0
:1038B400E20000007B000000C00000008C0000005B
:1038C4006B0000000000C93F0000F0390000DA3747
:1038D4000000A2330000842E0000502B0000C227F9
:1038E4000000D0220000C41F0000C61B00004417C3
:0C38F400040000000700000009000000B4
:0839000034C9FF7F0100000043
:04390800E9010008C9
:04390C00C5010008E9
:103910003C0400408E000000401400200100000024
:08392000100000000024F40077
:04000005080029C105
:00000001FF
